:060000000C94AE030C9409
:1000060000000C9400000C9400000C9400000C946A
:1000160000000C9400000C9400000C9400000C945A
:10002600251B0C9400000C9400000C9400000C940A
:1000360000000C9400000C9400000C9400000C943A
:1000460000000C9400000C9400000C9400000C942A
:1000560000000C9400000C9400000C9400000C941A
:10006600000057464D004E464D0020414D00E6E348
:10007600E0DFDEDCDBD9D7D5D2CABFB9B1A08C4967
:100086003C322D2925221E1B1815120F0C090704B8
:10009600020001050A0F1419326401020304050661
:1000A60007080A0C0F14191E0C0805020B0A070490
:1000B60001090603100F0E0D303132333435363751
:1000C6003839C0C2C1001027E80364000A000100E5
:1000D6000010000110000100000000000000005F99
:1000E60000000007000700147F147F14242A7F2ACB
:1000F6001223130864623649552250000503000096
:10010600001C2241000041221C00082A1C2A080863
:10011600083E0808005030000008080808080030AB
:1001260030000020100804023E5149453E00427F3F
:10013600400042615149462141454B311814127F16
:100146001027454545393C4A49493001710905039F
:100156003649494936064949291E00363600000007
:1001660056360000000814224114141414144122B7
:100176001408000201510906324979413E7E1111E7
:10018600117E7F494949363E414141227F41412204
:100196001C7F494949417F090901013E41415132CC
:1001A6007F0808087F00417F41002040413F017FD2
:1001B600081422417F404040407F0204027F7F04B2
:1001C60008107F3E4141413E7F090909063E4151E3
:1001D600215E7F09192946464949493101017F01B6
:1001E600013F4040403F1F2040201F7F2018207FB6
:1001F60063140814630304780403615149454300FA
:10020600007F4141020408102041417F00000402A2
:1002160001020440404040400001020400205454C2
:1002260054787F4844443838444444203844444849
:100236007F3854545418087E090102081454543C5B
:100246007F0804047800447D40002040443D0000BF
:100256007F10284400417F40007C041804787C0805
:1002660004047838444444387C14141408081414DC
:10027600187C7C080404084854545420043F444025
:10028600203C4040207C1C2040201C3C4030403C10
:1002960044281028440C5050503C4464544C4400AC
:1002A6000836410000007F000000413608000808BB
:1002B6002A1C08081C2A080840404040406060602C
:1002C6006060707070707078787878787C7C7C7CF0
:1002D6007C7E7E7E7E7E7F7F7F7F7F4000400040EB
:1002E6007F004000407F007F00407F007F007F3F0F
:1002F600212121213F3F2121213F3F3F21213F3F16
:100306003F3F213F3F3F3F3F2121213F0C3F2121DE
:100316003F0C3F3F213F0C3F3F3F3F0C004000401A
:10032600000000F8FE06030303030306FEF80007B9
:100336001F183030303030181F070000000C0C0E2C
:10034600FFFF000000000000003030303F3F30303B
:100356003000001C1E07030383C3E3773E1C0030F6
:10036600383C3E37333130303030000C0E07C3C3D3
:10037600C3C3C3E77E3C000C1C3830303030303904
:100386001F0E00C0E070381C0E07FFFF00000003C0
:100396000303030303033F3F0303003F7F636363DA
:1003A600636363E3C383000C1C383030303030386D
:1003B6001F0F00C0F0F8DCCEC7C3C3C38000000F18
:1003C6001F393030303030391F0F00030303030369
:1003D60003C3F33F0F0300000000303C0F0300008F
:1003E60000000000BCFEE7C3C3C3E7FEBC00000F6D
:1003F6001F393030303030391F0F003C7EE7C3C321
:10040600C3C3C3E7FEFC000000303030381C0E07C3
:100416000300000000007070700000000000000083
:1004260000001C1C1C000000000000000000000072
:10043600000000000000000000001C1C1C00000062
:1004460000000080808080808080808080000001A5
:1004560001010101010101010100000200000D007E
:10046600210041004F00610081009100B100ED00C4
:1004760011016101B1012102A10261030C002000FA
:1004860040004E00600080009000B000EC001001BB
:100496006001B0012002A0026003FF030000140007
:1004A60028003C005000640078008C0014002800EE
:1004B6003C005000640078008C00A0002020202022
:1004C600202020202020202020202020006572725D
:1004D6006F72206461746100736176656420696E71
:1004E600202D20005343414E204D4F44453A0020D5
:1004F60054494D4520002053514C20200056006B96
:10050600487A006572617365006D656D6F7279205A
:1005160066756C6C21212100616C726561647920BD
:10052600696E206368004147433A00564F4C3A00D3
:100536002020202020202020202020202053514C25
:1005460000202020204F50454E2020202000530020
:100556002B3530002B3430002B3330002B3230005B
:100566002B3130005343414E2050415553453A00FC
:10057600484F4C44002073005343414E205350458E
:1005860045443A0042414E4B3A20004F4600415501
:10059600004D4E00534554204C4F5720465245516E
:1005A6002E00534554204849474820465245512E6F
:1005B6000053455420574F524B20465245512E006A
:1005C6005345542054533A00206B487A004F464610
:1005D600005343414E00420049463120636F727218
:1005E600656374696F6E202000204D487A00444987
:1005F60053504C41592000555000444F574E00551A
:100606005020200001002D4E414E00494E4600006C
:1006160011000002C2040200690360040B0011020B
:10062600D3040C001C02DE040B002802EA040700B7
:100636003302F50407003A02FC04020041020305F6
:100646000400430205050600470209050F004D0296
:100656000F050E005C021E0505006A022C0505004A
:100666006F0231051100740236050D00850247053B
:1006760002009202540504009402560504009802F2
:100686005A0504009C025E050400A00262050400EF
:10069600A40266050C00A8026A050500B4027605E8
:1006A6000300B9027B050C00BC027E050400C802EB
:1006B60028050700CC028A050300D3029105030032
:1006C600D60294050300D90297050E00DC029A05AE
:1006D6000F00EA02A8050F00F902B7050800080393
:1006E600C60505001003CE0504001503D305050055
:1006F6001903D70503001E03290502002103DC05A3
:100706002000B40362042000D403820411002303F2
:10071600DE0505003403EF0509003903F40503007F
:100726004203FD0505004503000605004A030006D1
:1007360005004F030506050054030006050059038E
:1007460005060F00F503A2040F000504B20401001C
:100756001B040A060000F894EE27EFBBF1E0F5BF94
:10076600E5BFF8E1A895A4B7A77FA4BFF093600002
:10077600E09360008DE0A2E0BB27ED938A95E9F750
:1007860080E094E0A0E0B1E0ED930197E9F7E6E1BF
:10079600F6E085919591009761F0A591B591059048
:1007A6001590BF01F00105900D920197E1F7FB014D
:1007B600F0CFE0E0EEBBEFEFEDBFE4E0EEBFC0E070
:1007C600D2E00C94511AE3E5ECBDA881A13019F4EE
:1007D600ECB5E062ECBDE0E0EDBDE981EEBDEDB566
:1007E600E078E9F3E0E0ECBD22960895E0E0E093DE
:1007F6005F03E0936003EA81FB81A0915F03B09100
:100806006003EA0FFB1FE0935F03F0936003E88148
:10081600F9813197E883F9833196A9F0EC81FD815E
:100826003196EC83FD8331970F01AFE5B3E0ED918F
:10083600FD913196FE93EE933197DF010E945A1E89
:10084600D001EC93E4CF2AC0E0E0E0935F03E093AD
:100856006003EA81FB81A0915F03B0916003EA0F18
:10086600FB1FE0935F03F0936003E881F981319702
:10087600E883F983319691F0AFE5B3E0ED91FD9110
:100886003196FE93EE9331970F01AC81BD81ED91C8
:10089600AC83BD83D0010E94761EE7CF26960895CD
:1008A600A0E0B0E00E94521EE0939503F0939603F9
:1008B6006093970370939803A4E0B0E00E945A1ED9
:1008C600ABEAB3E0FF27662777270E94221EA5E042
:1008D600B0E00E945A1EE093A803A6E0B0E00E9492
:1008E6005A1EE093A903A7E0B0E00E945A1EE093C7
:1008F600AA03A8E0B0E00E945A1EE0939903A9E07B
:10090600B0E00E94521EE0939A03F0939B0360931B
:100916009C0370939D03ADE0B0E00E94521EE093ED
:100926009E03F0939F036093A0037093A103A1E13C
:10093600B0E00E945A1EE093A203A2E1B0E00E943A
:100946005A1EE093A303A3E1B0E00E945A1EE0936F
:10095600A403A4E1B0E00E945A1EE093A503A5E11A
:10096600B0E00E945A1EE093A603A6E1B0E00E9402
:100976005A1EE093A7030895E0E0EA93E1E0EA93C4
:100986000E94A41CE1E1F2E0FA93EA930E94221D80
:10099600E4EFF1E0FA93EA930E942F1DE3E0EA9375
:1009A6000E94CF0EE4EFF1E0FA93EA930E942F1D26
:1009B60008950E94971EE0917D03EF5F3E2FE0E0D1
:1009C600EA93E1E0EA930E94A41CECE1F2E0FA93D8
:1009D600EA930E94221DE0916503F0916603A32F1E
:1009E600B0E0AE1BBF0BEAE0F0E00E94C91D1E2F6F
:1009F600103019F0E12FE05D01C0E0E2EA930E94B9
:100A0600BA1CE0916503F0916603A32FB0E0AE1B1C
:100A1600BF0BEAE0F0E00E94F91D0E2F003011F442
:100A2600103019F0E02FE05D01C0E0E2EA930E9489
:100A3600BA1CE4EFF1E0FA93EA930E942F1DE2E07C
:100A4600EA930E94CF0EE4EFF1E0FA93EA930E9454
:100A56002F1DE0E0EA93E1E0EA930E94A41CE091F6
:100A66006903F0916A0326C4E0E0EA93E1E0EA93C1
:100A76000E94A41CE8E2F2E0FA93EA930E94221D87
:100A8600E091A703E03019F4E3E3F2E002C0EAE301
:100A9600F2E0FA93EA930E94221D08950E94971E9F
:100AA600E0E0EA93E6E0EA930E94A41CE92DEA93CB
:100AB6000E94BA1CE5E0EA93E6E0EA930E94A41CD1
:100AC600E82DEA930E94BA1CD301E0E1F7E20E9406
:100AD600B61D1E2FE12FE05DEA930E94BA1CEEE2DE
:100AE600EA930E94BA1CD301E0E1F7E20E94F61DE8
:100AF600DF01E8EEF3E00E94B61D0E2FE02FE05D69
:100B0600EA930E94BA1CD301E8EEF3E00E94F61DB8
:100B1600DF01E4E6F0E00E94B61D3E2FE32FE05D24
:100B2600EA930E94BA1CE1E4F2E0FA93EA930E9487
:100B3600221DECE3EA93E6E0EA930E94A41CE0910E
:100B4600A203F0E0E856FF4FA491E4E60E94A81D38
:100B56001E2F103019F0E12FE05D01C0E0E2EA93AC
:100B66000E94BA1CE091A203F0E0E856FF4FA49160
:100B7600E4E60E94F31DAE2FEAE00E94A81D0E2FA8
:100B8600003011F4103019F0E02FE05D01C0E0E212
:100B9600EA930E94BA1CE091A203F0E0E856FF4FE8
:100BA600A491EAE00E94F31D3E2F303021F400307C
:100BB60011F4103019F0E32FE05D01C0E0E2EA9392
:100BC6000E94BA1CE3E4F2E075C3E0E0EA93E1E0D8
:100BD600EA930E94A41CE7E4F2E0FA93EA930E94E7
:100BE600221DE2E0EA930E94CF0EE0E2F3E0FA93E0
:100BF600EA930E942F1DE0E0EA93E1E0EA930E9467
:100C0600A41CE0916903F0916A03E5C3E0E0EA936E
:100C1600E1E0EA930E94A41CEDE4F2E0FA93EA9381
:100C26000E94221DE3E0EA930E94CF0EE0E2F3E089
:100C3600FA93EA930E942F1DE0E0EA93E1E0EA933B
:100C46000E94A41CE0916903F0916A03C4C30E9448
:100C5600971EE0E0EA93E1E0EA930E94A41CECE52B
:100C6600F2E0FA93EA930E94221DE0915E03EF5FA1
:100C76003E2FE0916503F0916603A32FB0E0AE1B13
:100C8600BF0BEAE0F0E00E94C91D1E2F103019F0DC
:100C9600E12FE05D01C0E0E2EA930E94BA1CE09118
:100CA6006503F0916603A32FB0E0AE1BBF0BEAE02D
:100CB600F0E00E94F91D0E2FE02FE05DEA930E94FE
:100CC600BA1CE2E0EA930E94CF0EE0E2F3E0FA9368
:100CD600EA930E942F1DE0E0EA93E1E0EA930E9486
:100CE600A41CE0916903F0916A03FA93EA930E94C7
:100CF600221D76D3E3C21A93E0E0EA93E7E0EA9393
:100D06000E94A41CA981A33031F4EAE6F2E0FA932A
:100D1600EA930E94221DA981A13031F4EFE6F2E0A8
:100D2600FA93EA930E94221D10E01432A8F4AA81D5
:100D3600E3E00E94A81D1E1748F0AA81E3E00E9486
:100D4600F31DE957EA930E94BA1C06C0EAE8EA9343
:100D56000E94BA1C1F5FE9CFE4E2E11BAE2FE3E07D
:100D66000E94A81DE1501E2FE12F1150E03029F0FE
:100D7600E7E8EA930E94BA1CF7CF188123960895F4
:100D8600E0919903EA93E1E0EA93B5DF08951A93B7
:100D9600E0E0EA93E7E0EA930E94A41CE4E7F2E0CD
:100DA600FA93EA930E94221DE091A303E03069F4CE
:100DB600E4E0EA93E7E0EA930E94A41CE5E8F2E0A7
:100DC600FA93EA930E94221DEEC2E0E0EA93E7E07E
:100DD600EA930E94A41C10E01D3060F4E091A30386
:100DE6001E1710F4E6E801C0E4E9EA930E94BA1C73
:100DF6001F5FF2CFD8C21A93E0E0EA93E7E0EA93E6
:100E06000E94A41CE2E9F2E0FA93EA930E94221DF2
:100E160010E01F3010F00C945C07E091AF031E1732
:100E260010F00C945607103010F0123008F004C081
:100E3600E0E8EA930E94BA1C123010F0143008F071
:100E460004C0E1E8EA930E94BA1C143010F0163090
:100E560008F004C0E2E8EA930E94BA1C163010F0CB
:100E6600183008F004C0E3E8EA930E94BA1C183070
:100E760010F01A3008F004C0E4E8EA930E94BA1CA5
:100E86001A3010F01C3008F004C0E5E8EA930E941E
:100E9600BA1C1C3010F01F3008F004C0E6E8EA93D4
:100EA6000E94BA1C04C0E0E2EA930E94BA1C1F5FCB
:100EB600B0CFA0916B03B0916C03AF3FE3E0BE07E8
:100EC60010F00C94CB07EEE4EA93E7E0EA930E9475
:100ED600A41CA0916B03B0916C03A639E0E0BE0799
:100EE60020F0AE35E1E0BE0708F006C0E4E9F2E026
:100EF600FA93EA930E94221DA0916B03B0916C03B2
:100F0600AE35E1E0BE0720F0A43FE1E0BE0708F001
:100F160006C0E8E9F2E0FA93EA930E94221DA09146
:100F26006B03B0916C03A43FE1E0BE0720F0A83547
:100F3600E2E0BE0708F006C0ECE9F2E0FA93EA93B5
:100F46000E94221DA0916B03B0916C03A835E2E0CC
:100F5600BE0720F0A032E3E0BE0708F006C0E0EAD4
:100F6600F2E0FA93EA930E94221DA0916B03B091DE
:100F76006C03A032E3E0BE0720F0AF3FE3E0BE071C
:100F860008F006C0E4EAF2E0FA93EA930E94221D12
:100F96000AC21A930A93E0E0EA93E1E0EA930E9418
:100FA600A41CE8EAF2E0FA93EA930E94221DE0917B
:100FB600A403E03019F4E4EBF2E022C0A091A4030C
:100FC600EAE00E94A81D1E2F103019F0E12FE05D07
:100FD60001C0E0E2EA930E94BA1CA091A403EAE0F1
:100FE6000E94F31D0E2F003011F4103019F0E02F7F
:100FF600E05D01C0E0E2EA930E94BA1CE9EBF2E090
:10100600FA93EA930E94221D0C940E0E1A930A93E9
:10101600E0E0EA93E1E0EA930E94A41CECEBF2E044
:10102600FA93EA930E94221DE091A503F0E0E056B0
:10103600FF4FA491EAE00E94A81D1E2F103019F060
:10104600E12FE05D01C0E0E2EA930E94BA1CE09164
:10105600A503F0E0E056FF4FA491EAE00E94F31DDD
:101066000E2F003011F4103019F0E02FE05D01C0B2
:10107600E0E2EA930E94BA1CE8ECF2E0FA93EA9303
:101086000E94221D0C940E0EE0E0EA93E1E0EA9342
:101096000E94A41CE0916903F0916A03FA93EA9313
:1010A6000E94221DE0E0EA93E1E0EA930E94A41C7C
:1010B600ECECF2E0FA93EA930E94221DE091A6037B
:1010C600EF5CEA930E94BA1C0895E6E4EA93E0E036
:1010D600EA930E94A41CE091A803E03039F4E3ED02
:1010E600F2E0FA93EA930E94221D1FC0A091A80382
:1010F600A13039F4E6EDF2E0FA93EA930E94221D5C
:1011060014C0A091A803A23081F4E9EDF2E0FA93AD
:10111600EA930E94221DA0916D03A83031F4E0915C
:10112600A903EA93E3E0EA93E6DD08951A93E0E083
:10113600EA93E1E0EA930E94A41CA0916D03A43017
:1011460019F4ECEDF2E00DC0A0916D03A63019F490
:10115600EAEEF2E006C0A0916D03A73031F4E9EFA4
:10116600F2E0FA93EA930E94221DE0E0EA93E6E0B9
:10117600EA930E94A41C10E01330E0F4A0E7B3E069
:10118600EE27A10FBE1FAC91AF3F39F0A0E7B3E049
:10119600EE27A10FBE1FEC9101C0ECE0EA93ACE094
:1011A6001A9FF001EB5FEA93E3E0EA930E94D91CF1
:1011B6001F5FE2CFEBE0EA93ACE01A9FF001EB5F32
:1011C600EA93E3E0EA930E94D91C13E01630F0F4A8
:1011D600A0E7B3E0EE27A10FBE1FAC91AF3F39F0F9
:1011E600A0E7B3E0EE27A10FBE1FEC9101C0ECE033
:1011F600EA93E12FEF5FACE0EA9FF001EB5FEA9341
:10120600E3E0EA930E94D91C1F5FE0CFCCC00E94A6
:10121600971EE0E0EA93E1E0EA930E94A41CE8E06E
:10122600F3E0FA93EA930E94221DE091A203F0E014
:10123600E856FF4FA491E4E60E94A81D1E2F103029
:1012460019F0E12FE05D01C0E0E2EA930E94BA1CCA
:10125600E091A203F0E0E856FF4FA491E4E60E9475
:10126600F31DAE2FEAE00E94A81D0E2F003011F4E8
:10127600103019F0E02FE05D01C0E0E2EA930E9431
:10128600BA1CE091A203F0E0E856FF4FA491EAE011
:101296000E94F31D3E2F303021F4003011F410303F
:1012A60019F0E32FE05D01C0E0E2EA930E94BA1C68
:1012B600E0E1F3E0FA93EA930E94221D0E949E1E4B
:1012C600249608951A930A9316E0133041F4A6E77C
:1012D600B3E0EE27A10FBE1FEEE2EC9324C0AA8175
:1012E600BB818C819D81EAE0F0E060E070E00E94C5
:1012F600071E0E2FA6E7B3E0EE27A10FBE1FE02FB5
:10130600F0E0E254FF4FE491EC93AA81BB818C811B
:101316009D81EAE0F0E060E070E00E94CE1DEA8385
:10132600FB836C837D83E12F1150E03071F60C94C2
:10133600400F1A93E0919503F091960360919703FD
:10134600709198030E94401EBDDF10E0173058F5DB
:10135600103041F4A6E7B3E0EE27A10FBE1FAC9113
:10136600A03309F009C0E0E0EA93E12FEB5FEA93CE
:10137600E3E0EA930E94D91C133011F4EBE007C0B6
:10138600A6E7B3E0EE27A10FBE1FEC91E053EA9368
:10139600ACE01A9FF001EB5FEA93E3E0EA930E9468
:1013A600D91C1F5FD3CF19910895E0E0EA93E1E0DD
:1013B600EA930E94A41CE0916903F0916A03FA93F0
:1013C600EA930E94221DE4E2EA93E1E0EA930E9496
:1013D600A41CE5E1F3E0FA93EA930E94221D089526
:1013E6000E94971EE0E0EA93EA930E94A41CE09113
:1013F600AB03F091AC03A8E6B0E00E94701DEA0FC3
:10140600FB1FFA93EA930E94121DE0918803E030D5
:1014160069F0E4E2EA93E1E0EA930E94A41CE9E1C0
:10142600F3E0FA93EA930E94221D46C0E0E0EA93B5
:10143600E1E0EA930E94A41CE0916903F0916A033B
:10144600FA93EA930E94221DE4E2EA93E1E0EA932A
:101456000E94A41CEEE1F3E0FA93EA930E94221D97
:10146600E0917F03EF5F3E2FE0916503F091660305
:10147600A32FB0E0AE1BBF0BEAE0F0E00E94C91D4F
:101486001E2F103019F0E12FE05D01C0E0E2EA9373
:101496000E94BA1CE0916503F0916603A32FB0E0A9
:1014A600AE1BBF0BEAE0F0E00E94F91D0E2FE02F05
:1014B600E05DEA930E94BA1CA0918403A13041F436
:1014C600E9E1EA93E0E0EA930E94A41CEDE407C098
:1014D600E9E1EA93E0E0EA930E94A41CE0E2EA93E1
:1014E6000E94BA1CEBE2EA93E0E0EA930E94A41C95
:1014F600E1E2F3E0FA93EA930E94221DE091A6034B
:10150600EF5CEA930E94BA1CE0DDE8E5EA93E0E0CE
:10151600EA930E94A41CE091AA03E03011F0E7E4EC
:1015260001C0E0E2EA930E94BA1C0E949E1E0C943F
:10153600C110FFDE55DF089522970E94951EA091E7
:101546009503B09196038091970390919803E2E3F7
:10155600F0E060E070E00E94CE1DA2E3B0E080E023
:1015660090E00E947D1DA0919503B0919603809115
:101576009703909198030E94451E0E94451DEE8395
:10158600FF83A8E1B0E00E94561EEC5CF942DF0141
:10159600EE81FF81AE1BBF0BAD019A011DE9F894E8
:1015A600E4E1EA93E0E0EA930ED9000000000000CF
:1015B6005E9A2A93E1E0EA930E94E603E32FF07035
:1015C600EA93E1E0EA930E94E6031A93E0E0EA93E5
:1015D6000E94E6035E98000000000000E4E9EA933A
:1015E600E0E0EA930E94E6030000000000005E9A35
:1015F600E091AB03F091AC03E853FF4FE491EA931B
:10160600E0E0EA930E94E603E0E0EA93EA930E94B0
:10161600E603E8E0EA93E0E0EA930E94E6035E98D8
:1016260078940E949C1E28960895459A449A8BE1C8
:101636008A95F1F744980BC04498459A8BE18A95B0
:10164600F1F7449A08958BE18A95F1F7459A8BE173
:101656008A95F1F7459808951A9310E0183060F4CA
:10166600E981E07811F0449A01C04498ECDFE98101
:10167600EE0FE9831F5FF2CFE6DF18812296089509
:101686000E94971E31E0A0919503B0919603809138
:10169600970390919803A937EDE5BE07E2E08E0720
:1016A600E0E09E0708F032E0A0919503B091960322
:1016B6008091970390919803A13CE6EBBE07E6E084
:1016C6008E07E0E09E0708F03CE0E0919503F0917C
:1016D60096036091970370919803EC54FE466F4F02
:1016E6007F4FDF01CB01E2E3F0E060E070E00E94B3
:1016F600CE1D8F01F89499DFE0ECEA93ADDFE12F80
:10170600EA93AADF0A93A8DFE091AA03E03011F07A
:10171600E9E801C0E8E8EA939FDF3A939DDF8CDFB2
:1017260078940E949E1E2AC5E0918F03E03021F432
:10173600E0919003E03009F01FC0E0918D03E030A6
:1017460021F4E0918E03E03009F406C0E0919203A3
:10175600EF5FE0939203E150E0918D03E03021F0DA
:10176600E0918E03E03009F006C0E0919203E1506B
:10177600E0939203EF5F77C0E0918F03E03021F4AE
:10178600E0919003E03009F41FC0E0918D03E03052
:1017960021F4E0918E03E03009F006C0E091920357
:1017A600E150E0939203EF5FE0918D03E03021F08A
:1017B600E0918E03E03009F406C0E0919203EF5FFA
:1017C600E0939203E1504FC0E0918F03E03021F0A7
:1017D600E0919003E03009F01FC0E0918D03E03006
:1017E60021F4E0918E03E03009F006C0E091920307
:1017F600EF5FE0939203E150E0918D03E03021F03A
:10180600E0918E03E03009F406C0E0919203E150C6
:10181600E0939203EF5F27C0E0918F03E03021F061
:10182600E0919003E03009F420C0E0918D03E030B0
:1018360021F4E0918E03E03009F406C0E0919203B2
:10184600E150E0939203EF5FE0918D03E03021F0E9
:10185600E0918E03E03009F006C0E0919203EF5F5D
:10186600E0939203E150E1E00895E0E00895E0E0BE
:101876004B99E1E0E0938D0357DFE03021F0E091F2
:101886008D03E0938F03E0E04C99E1E0E0938E0353
:101896004BDFE03021F0E0918E03E0939003A091BE
:1018A6009203E0919303EA17C1F1419AE0E0E093D5
:1018B6006103E0936203A0919203E0919303EA1718
:1018C60028F4E091B203EF5FE093B203A091920394
:1018D600E0919303AE1728F4E091B303EF5FE09332
:1018E600B303E0919203E0939303A091B203A43073
:1018F60040F0E0E0E093B203E093B303E1E0E0936D
:101906009403A091B303A43040F0E0E0E093B30366
:10191600E093B203E2E0E09394030895E091630359
:10192600F0916403A0916103B0916203AE17BF0703
:1019360038F04198E0E0E0936103E093620307C06A
:10194600A1E6B3E0ED91FD913196FE93EE930895F5
:10195600E0919503F0919603609197037091980337
:10196600A0E0B0E00E94661EE0919903A8E0B0E016
:101976000E94761EE091A303A2E1B0E00E94761ECB
:10198600E091A203A1E1B0E00E94761EE091A903D6
:10199600A6E0B0E00E94761EE091A403A3E1B0E0C9
:1019A6000E94761EE091A503A4E1B0E00E94761E97
:1019B600E091AA03A7E0B0E00E94761EE091AB0397
:1019C600A4E0B0E00E94761EE091A803A5E0B0E096
:1019D6000E94761EE0919A03F0919B0360919C030E
:1019E60070919D03A9E0B0E00E94661EE0919E03FF
:1019F600F0919F036091A0037091A103ADE0B0E068
:101A06000E94661EE091A603A5E1B0E00E94761E44
:101A1600E091A703A6E1B0E00E94761E08951A930E
:101A26000A93E0918703E03021F0E091A303E030D0
:101A360009F407C0E3E0E0938900EFEFE093880044
:101A460014C0A0919903A53280F4E0919903F0E0C7
:101A5600EC58FF4FE491F0E074968F01E12FF0709F
:101A6600E370E093890000938800D5C01A930A9327
:101A7600E091A803E03019F40FEF13E011C0A09134
:101A8600A803A13029F400916B0310916C0308C0E0
:101A9600A091A903E7E1EA9FF001EA56FF4F8F0103
:101AA6000030E4E01E0710F00FEF13E0E12FF070B6
:101AB600E370E0938B0000938A00ADC00E94971EEE
:101AC600A091A803A13011F00C94DA0DA0916B033C
:101AD600B0916C03A43FE1E0BE0710F425E001C01D
:101AE60024E1A091F403AB1538F4E091B103A09181
:101AF600AF03AE1708F055C0E0E0E093F403E091C1
:101B0600AF03E093B103A091B103AF30D8F0A09139
:101B16006B03B0916C03A639E0E0BE0790F0E22FAC
:101B2600F0E0AE1BBF0BA0936B03B0936C03A6391A
:101B3600E0E0BE0730F4E6E9F0E0E0936B03F093F3
:101B46006C031EC0A0916B03B0916C03A030E4E05F
:101B5600BE07B0F4E22FF0E0EA0FFB1FE0936B0341
:101B6600F0936C03A0916B03B0916C03A030E4E09A
:101B7600BE0730F0EFEFF3E0E0936B03F0936C03F6
:101B860023D08F010538E3E01E0720F00E3FE3E087
:101B96001E0708F001C031E0303009F4B4CF66DF2B
:101BA60005C0E091F403EF5FE093F40306C0EFEFA6
:101BB600F3E0E0936B03F0936C030E949E1EDEC27B
:101BC6000E949F0A5DDD08951A930A93E3E0E0936D
:101BD6007C008BE18A95F1F7E5E8E0937A0080E9ED
:101BE60091E00197F1F7E0917A00E064E0937A00E2
:101BF600E0917A00E074E1F7E0917800F0E0DF012F
:101C0600E0917900FE2FE0E0EA2BFB2B8F01E0E06C
:101C1600E0937A00F801099119910895E2E0E093C2
:101C26007C008BE18A95F1F7E5E8E0937A0080E99C
:101C360091E00197F1F7E0917A00E064E0937A0091
:101C4600E0917A00E074E1F7E0917800F0E0DF01DE
:101C5600E0917900FE2FE0E0EA2BFB2B2F01E0E07C
:101C6600E0937A00F2010895A0918B03A13011F060
:101C76000C94CE0ED3DFF201AEE2B0E00E94751DE9
:101C86003F01E0E0FDE7E615F70570F0419A0E9496
:101C9600D8095EDEE5E0EA937FD02F98E8EBFBE01B
:101CA600FA93EA930E942F1DE0E0FDE7E615F7059B
:101CB60028F4E0EDF4E8E615F70508F404C0EBE8CF
:101CC6009E2EE0E98E2EE0EDF4E8E615F70528F401
:101CD600E0EAFCE8E615F70508F404C0ECE89E2EF9
:101CE600E0E98E2EE0EAFCE8E615F70528F4E8E8D8
:101CF600F0E9E615F70508F404C0EDE89E2EE0E9E4
:101D06008E2EE8E8F0E9E615F70528F4ECE7F2E9A7
:101D1600E615F70508F404C0EEE89E2EE0E98E2EDF
:101D2600ECE7F2E9E615F70528F4E0E7F4E9E6154D
:101D3600F70508F404C0EFE89E2EE0E98E2EE0E7F2
:101D4600F4E9E615F70528F4E8E5F8E9E615F705F8
:101D560008F404C0EFE89E2EE1E98E2EE8E5F8E9E6
:101D6600E615F70528F4E8E2F0EAE615F70508F4C3
:101D760004C0EFE89E2EE2E98E2EE8E2F0EAE615D0
:101D8600F70520F4EFE89E2EE3E98E2E0E9451051A
:101D9600E0E0E0938B030895E881E150E883EF5F8C
:101DA60079F02C9AE4E6F0E0FA93EA930E942F1D6C
:101DB6002C98E4E6F0E0FA93EA930E942F1DECCF0C
:101DC6002196089524971A930A93FEDE66277727AD
:101DD600EA83FB836C837D8310E00FE0E02FE10F45
:101DE600EF5FE695A4EBB3E0F0E0EE0FFF1FAE0F5A
:101DF600BF1F0E94191EDF01EA81FB816C817D8174
:101E0600882799270E948B1E28F4E02FE10FE6957C
:101E16000E2F1DC0E02FE10FE695A4EDB3E0F0E034
:101E2600EE0FFF1FAE0FBF1F0E94191EDF01EA81D2
:101E3600FB816C817D81882799270E94901E30F452
:101E4600E02FE10FEF5FE6951E2F01C001C0C6CF60
:101E5600E02FE10FE695E093AF03A0916D03A0306C
:101E660011F0A53021F4E0918203E03009F405C0B9
:101E76000E94FE06E0E0E09382031981088126961F
:101E86000895E091A303A091AF03AE1758F0E0E0E8
:101E9600E0938803E0938703419AE0936103E0931C
:101EA600620303C0E1E0E0938703B9DD08951A9366
:101EB60010E0163048F4A0E7B3E0EE27A10FBE1FEE
:101EC600EFEFEC931F5FF5CF7BC42497E09170038F
:101ED600FF2766277727A0EAB6E881E090E00E9410
:101EE6007D1D7F936F93FF93EF93E0917103FF271F
:101EF60066277727A0E1B7E280E090E00E947D1D8B
:101F0600AF91BF918F919F910E943B1D7F936F93DD
:101F1600FF93EF93E0917203FF2766277727A8EEDA
:101F2600B3E080E090E00E947D1DAF91BF918F915C
:101F36009F910E943B1D7F936F93FF93EF93E091D8
:101F46007303FF2766277727A4E6B0E00E94751D76
:101F5600AF91BF918F919F910E943B1D7F936F938D
:101F6600FF93EF93E0917403FF2766277727AAE094
:101F7600B0E00E94751DAF91BF918F919F910E9415
:101F8600401DE0917503FF27662777270E943B1DBA
:101F96000E94361EF3C024970E949908A0916F03F1
:101FA600A53010F40C94BB1090DF0E94361E0E94E0
:101FB600311EA13DE0E3BE07EEE08E07E0E09E079E
:101FC60040F4A034ECE9BE07E0E08E07E0E09E07AF
:101FD60018F40E94BF04C0C0A0916D03A43021F57F
:101FE600E0919E03F0919F036091A0037091A1037D
:101FF6000E94311E0E94901E18F00E94BF0413C05A
:102006000E942C1EE0939A03F0939B0360939C031B
:1020160070939D03E6E9F0E0FA93EA930E942F1D80
:10202600E2E0EA93B9DE98C0A0916D03A63021F5EF
:10203600E0919A03F0919B0360919C0370919D033C
:102046000E94311E0E948B1E18F00E94BF0413C00E
:102056000E942C1EE0939E03F0939F036093A003BF
:102066007093A103E6E9F0E0FA93EA930E942F1D2C
:10207600E2E0EA9391DE70C0A0916D03A73011F003
:102086000C94AF100E942C1EE0939503F0939603D8
:102096006093970370939803A0919503B09196036C
:1020A6008091970390919803A03DE1E0BE07E1E09F
:1020B6008E07E0E09E0740F0A03EE5EABE07E1E0BD
:1020C6008E07E0E09E0708F010C0E0E0F0E060E078
:1020D60070E0E093AB03F093AC036093AD037093B1
:1020E600AE03E7E0E093A2032DC0E5E0E093A20390
:1020F600A0919503B09196038091970390919803D0
:10210600A03EE5EABE07E1E08E07E0E09E0740F06C
:10211600A832E7E1BE07E2E08E07E0E09E0708F09E
:1021260005C0E2E0F0E060E070E004C0E1E0F0E06D
:1021360060E070E0E093AB03F093AC036093AD0313
:102146007093AE033DDDE6E9F0E0FA93EA930E9470
:102156002F1DE2E0EA9320DEE0E0E0936F03A7DEC6
:102166000E949C0A0E94FE06E0E0E0936D0306C012
:10217600E0916F03EF5FE0936F03E15024960895BB
:102186001A930A93E0E0E0938C03E1E0E09388037E
:10219600E8E0F7E0E0936303F0936403E1E0BE2E2A
:1021A600EA81E03011F00C943611E0918903E030B9
:1021B60059F5E0919E03F0919F036091A003709101
:1021C600A103A0919503B0919603809197039091F6
:1021D60098030E94901EA0F4E091A203F0E0E85656
:1021E600FF4FE491FF27662777270E943B1DE09368
:1021F6009503F0939603609397037093980303C037
:10220600E1E0E09389032EC0A0918903A13051F546
:10221600E0919A03F0919B0360919C0370919D035A
:10222600A0919503B091960380919703909198039E
:102236000E948B1EA0F4E091A203F0E0E856FF4F47
:10224600E491FF27662777270E944A1DA0939503EE
:10225600B0939603809397039093980303C0E0E0AE
:10226600E093890304C0AA81A13009F454D1A8DC03
:102276000E949C0AE0E0E0938303E0938A03F4DC87
:1022860014D3A0DDFEDD1ADC49DBA091A703A13043
:10229600C9F4E0918803E030A1F4E091A403E030B2
:1022A60019F4E1E0E0938C03E1E0E0938A03E09324
:1022B6008803A091A403B0E0E4E8F3E00E94751D52
:1022C6008F011DC0A0918803A03021F4A0918A033C
:1022D600A03009F014C0E091A403E03019F4E1E065
:1022E600E0938C03E1E0E0938A03E0938803A091F6
:1022F600A403B0E0E4E8F3E00E94751D8F01A0910D
:102306008C03A13079F4E0E0E0938803E9E1BE2E86
:10231600E0EBF6E3E0936303F09364030E949C0A08
:10232600789420C0E0E0E0938C03E1E0F0E0FA93DB
:10233600EA930E942F1DA895E0918A03E03029F0C8
:10234600F80101501040309709F401C098CFE09190
:102356008A03E03021F4E0918303E03009F001C004
:1023660089CF10CF19810881239608952897E0E038
:10237600E883E983EA83EB830E94971E30E00091AD
:10238600650310916603E0916703F09168030E17E9
:102396001F0778F500935E03FE013496FA93EA93DD
:1023A600A3E0A09FF001A19FF00DB096FA93EA93E7
:1023B600E3E0F0E0FA93EA930E94F903EE81FF81ED
:1023C600EF73F070EE83FF83E0919503F09196032F
:1023D6006091970370919803AC81BD818E819F8136
:1023E6000E948B1E19F40E942A0691C00F5F1F4F90
:1023F600CACFE0916503F0916603E0937D03F09305
:102406007E03FE013896FA93EA93A0917D03B0917C
:102416007E03E3E00E949D1DB096FA93EA93E3E003
:10242600F0E0FA93EA930E94F903EA85FB85EF73DD
:10243600F070EA87FB87A885B9858A859B85A13DCB
:10244600E0E3BE07EEE08E07E0E09E0740F4A0342E
:10245600ECE9BE07E0E08E07E0E09E07B8F5E09104
:102466009503F09196036091970370919803E8871E
:10247600F9876A877B87A091AB03B091AC03809103
:10248600AD039091AE03E6E10E94581DA885B9857B
:102496008A859B850E944F1DE887F9876A877B8717
:1024A600FE013896FA93EA93A0917D03B0917E03DC
:1024B600E3E00E949D1DB096FA93EA93E3E0F0E014
:1024C600FA93EA930E94270431E007C0ADE7B3E030
:1024D600ED91FD913196FE93EE93A0917D03B0911F
:1024E6007E03E0916703F0916803AE17BF0710F40F
:1024F600303009F001C085CF303019F40E9409064A
:1025060002C00E94DC040E949C0A0E94FE060E94F1
:102516009E1E2C96089528971A930A9310E004E1BC
:10252600A0917F03B0918003E0916703F091680367
:102536003197AE17BF0718F0E1E0EA1509F006C0BB
:10254600E0916503F0916603319713C0A0917F0374
:10255600B0918003E0916503F0916603EA17FB07EB
:102566001CF0EFEFEA1509F008C0E0916703F0915F
:102576006803E0937F03F0938003A0917F03B091FB
:102586008003EA2DF0E0E7FDFFEFEA0FFB1FE09383
:102596007F03F0938003FE013696FA93EA93A091A7
:1025A6007F03B0918003E3E0F0E00E94A31DB096A4
:1025B600FA93EA93E3E0F0E0FA93EA930E94F903D0
:1025C600EE81FF8168857985EA83FB836C837D8351
:1025D600E070F070607C7070EA83FB836C837D83AF
:1025E600AA81BB818C819D81E6E10E94641DEA83FC
:1025F600FB836C837D83E885F985EF73F070E8874C
:10260600F987AE81BF8188859985A13DE0E3BE0744
:10261600EEE08E07E0E09E0740F4A034ECE9BE074A
:10262600E0E08E07E0E09E0708F41BC0EE81FF8124
:1026360068857985E0939503F093960360939703F5
:1026460070939803EA81FB816C817D81E093AB03F3
:10265600F093AC036093AD037093AE03B1DA10E070
:1026660001C011E0E02F0150E03011F0103009F404
:1026760001C056CF113041F4E0916503F091660335
:10268600E0937F03F0938003198108812A960895C9
:102696001A9310E0EDB7FEB73197FA93EA932F93AA
:1026A6001F93A0917F03B0918003E3E0F0E00E94C6
:1026B600A31DB096FA93EA93E3E0F0E0FA93EA9367
:1026C6000E9427041F912F910E94E80524DF78C0FD
:1026D6001A93A0918C03AF3009F072C0E0E0E0934A
:1026E6008C03EA93EA930E94A41CE3E2F3E0FA93D4
:1026F600EA930E94221DA895A0919403A13099F413
:10270600E0E0E0939403A8E1B0E00E94561EE63EA6
:10271600A1E9FA0740F4A8E1B0E00E94561E3196FE
:102726000E946E1E3197A0919403A23099F4E0E0C6
:10273600E0939403A8E1B0E00E94561EE338A1E9B5
:10274600FA0740F0A8E1B0E00E94561E31970E94B9
:102756006E1E3196A8E1B0E00E94561E66277727C6
:102766000E94401E0E946509E0E0EA93E1E0EA93D8
:102776000E94A41C10E01730C0F4103041F4A6E704
:10278600B3E0EE27A10FBE1FAC91A03309F002C043
:10279600E0E206C0A6E7B3E0EE27A10FBE1FEC916C
:1027A600EA930E94BA1C1F5FE6CFE4E3F3E0FA93D4
:1027B600EA930E94221D1E9902C077D001C09BCFCA
:1027C60019910895A0918C03AE3009F00895E0E0C8
:1027D600E0938C03EA93EA930E94A41CE9E3F3E0F6
:1027E600FA93EA930E94221DA7E1B0E00E945A1EC6
:1027F600E13019F4E2E4F3E002C0E5E4F3E0FA9331
:10280600EA930E94221DA895A0919403A13011F588
:10281600E0E0E0939403E0E3EA93E0E0EA930E94C9
:10282600A41CA7E1B0E00E945A1EE13041F4A7E1E2
:10283600B0E0E0E00E94761EEAE4F3E007C0A7E11C
:10284600B0E0E1E00E94761EEFE4F3E0FA93EA934B
:102856000E94221DA0919403A23011F5E0E0E093BE
:102866009403E0E3EA93E0E0EA930E94A41CA7E164
:10287600B0E00E945A1EE13041F4A7E1B0E0E0E08A
:102886000E94761EE4E5F3E007C0A7E1B0E0E1E0D0
:102896000E94761EE9E5F3E0FA93EA930E94221D70
:1028A6001E9902C002D00895AECF1E991FC0419A4C
:1028B600E4EFF1E0FA93EA930E942F1D1E9916C0E9
:1028C6000E94D8090E94AB0CEAE0F0E0FA93EA9382
:1028D6000E942F1D1E9BF8CFE5E0EA935DDA2F9844
:1028E600E8EBFBE0FA93EA930E942F1D089500009F
:1028F600000000005F9A0000000000005F98089545
:10290600E0E0EA93EA930E94E603F1DF00000000AC
:10291600000008951A930A93A0918C03A03019F42D
:10292600EEE1DE1608F43BC0CC240EEF10E01830C2
:10293600A8F50A93E0E0EA930E94E603D8DF0000D8
:1029460000000000189912C0E12FF0E0E255FF4F99
:10295600049000928C03DD242C9AE1E0E093850339
:10296600419AE0E0E0936103E0936203309912C07C
:10297600E12FF0E0EA54FF4F049000928C03DD242F
:102986002C9A419AE0E0E0936103E0936203E1E070
:10299600E0938503000F01601F5FC9CF04C0EFEF0E
:1029A600DE1608F4D394E0E0EA93EA930E94E60385
:1029B6009EDF0000000000000991199108952497F8
:1029C600E091A203F0E0E856FF4FE491FF27662767
:1029D6007727A0919503B0919603809197039091E4
:1029E60098030E94CE1DDF01CB01E091A203F0E027
:1029F600E856FF4FE491FF27662777270E947D1D43
:102A0600A0919503B09196038091970390919803B6
:102A16000E944A1D0E943B1E0E942C1E0E94871E79
:102A260091F10E94311EE0919503F0919603609119
:102A36009703709198030E94451DE0939503F093C8
:102A460096036093970370939803EC81E030D9F472
:102A5600E091A203F0E0E856FF4FE491A0919503C0
:102A6600B09196038091970390919803FF2766276C
:102A760077270E943B1DE0939503F093960360939E
:102A860097037093980325960895A0919503B091A6
:102A960096038091970390919803A03DE0E3BE07CB
:102AA600EEE08E07E0E09E0728F0E0EDF0E36EE052
:102AB60070E016C0E1E0EA9382DFE091A203F0E065
:102AC600E856FF4FE491A0919503B091960380914B
:102AD600970390919803FF27662777270E943B1D4F
:102AE600E0939503F093960360939703709398038E
:102AF6003BC0A0919503B091960380919703909166
:102B06009803A134ECE9BE07E0E08E07E0E09E07FB
:102B160068F4E0E4FCE960E070E0E0939503F0938C
:102B2600960360939703709398031EC0E0E0EA93C0
:102B360046DFE091A203F0E0E856FF4FE491A09152
:102B46009503B09196038091970390919803FF2780
:102B5600662777270E944A1DA0939503B093960394
:102B660080939703909398030E94E30D0E949C0A1A
:102B76000895A0919403A13011F00C94B716E0E0EB
:102B8600E0939403E0916D03E03069F4A09184032F
:102B9600A13039F4E1E0AE2E0E948E120E949C0A0A
:102BA60001C073DFE1C0E13099F4E0E0E0936E0329
:102BB600A0919903A43210F0E4E203C0E0919903D6
:102BC600EF5FE09399030E94120D0E94C306CCC0EA
:102BD600E230A1F4E0E0E0936E03A091A303AD30F0
:102BE60020F0EDE0E093A30306C0E091A303EF5FBE
:102BF600E093A303E1500E94CA06B6C0E330A1F4F5
:102C0600E0E0E0936E03A091A203A73020F0E7E096
:102C1600E093A20306C0E091A203EF5FE093A20354
:102C2600E1500E940A09A0C0E830B1F4E0E0E09368
:102C36006E03A091A903A43220F0E4E2E093A90375
:102C460006C0E091A903EF5FE093A903E1500E945B
:102C5600390D0E94680888C0E930A1F4E0E0E093ED
:102C66006E03A091A403A43120F0E4E1E093A40351
:102C760006C0E091A403EF5FE093A403E1500E9435
:102C8600CC0772C0EA30A1F4E0E0E0936E03A091B5
:102C9600A503AD3020F0EDE0E093A50306C0E0917A
:102CA600A503EF5FE093A503E1500E9409085CC00D
:102CB600EB3079F4E0E0E0936E03E091A703E030B7
:102CC60011F4E1E001C0E0E0E093A7030E943705BC
:102CD6004BC0EC3011F00C94B716E0E0E0936E03B5
:102CE600E091A603EF5FE093A603E150A091A6034F
:102CF600A83014F0E0E005C0A091A603A0301CF4B3
:102D0600E7E0E093A603E091A603A5EFB3E0F0E0C9
:102D1600EE0FFF1FAE0FBF1F0E94191EE093650343
:102D2600F0936603E091A603A5E0B4E0F0E0EE0FB1
:102D3600FF1FAE0FBF1F0E94191EE0936703F0939B
:102D46006803AA24E0916503F0916603E0937F038C
:102D5600F0938003A0918403A13021F40E948E1287
:102D66000E949C0A0E944708A0919403A23011F089
:102D76000C94B117E0E0E0939403E0916D03E0302A
:102D860069F4A0918403A13039F4EFEFAE2E0E94CE
:102D96008E120E949C0A01C0ACDEE0C0E13091F4C4
:102DA600E0E0E0936E03A0919903A13008F403C01C
:102DB600E0919903E150E09399030E94120D0E945D
:102DC600C306CCC0E230A1F4E0E0E0936E03E091EC
:102DD600A303E03021F4E0E0E093A30306C0E09112
:102DE600A303E150E093A303EF5F0E94CA06B6C0B7
:102DF600E330A1F4E0E0E0936E03E091A203E0305B
:102E060021F4E0E0E093A20306C0E091A203E150C2
:102E1600E093A203EF5F0E940A09A0C0E830B1F474
:102E2600E0E0E0936E03E091A903E03021F4E0E0F6
:102E3600E093A90306C0E091A903E150E093A9033A
:102E4600EF5F0E94390D0E94680888C0E930A1F43E
:102E5600E0E0E0936E03E091A403E03021F4E0E0CB
:102E6600E093A40306C0E091A403E150E093A40319
:102E7600EF5F0E94CC0772C0EA30A1F4E0E0E09375
:102E86006E03E091A503E03021F4E0E0E093A503B2
:102E960006C0E091A503E150E093A503EF5F0E9411
:102EA60009085CC0EB3079F4E0E0E0936E03E09152
:102EB600A703E03011F4E1E001C0E0E0E093A703EE
:102EC6000E9437054BC0EC3011F00C94B117E0E0CE
:102ED600E0936E03E091A603E150E093A603EF5F53
:102EE600A091A603A83014F0E0E005C0A091A603C7
:102EF600A0301CF4E7E0E093A603E091A603A5EF5B
:102F0600B3E0F0E0EE0FFF1FAE0FBF1F0E94191EC9
:102F1600E0936503F0936603E091A603A5E0B4E0B1
:102F2600F0E0EE0FFF1FAE0FBF1F0E94191EE093C9
:102F36006703F0936803AA24E0916503F0916603A2
:102F4600E0937F03F0938003A0918403A13021F4E2
:102F56000E948E120E949C0A0E944708E0918C03F0
:102F6600E03011F40C94291A419AE0E0E0936103F1
:102F7600E0936203E0918C03ED3091F5A0916D032F
:102F8600A73021F0A43011F0A630B1F4E0916F0320
:102F9600E03089F0E0916F03E150E0936F03EF5F5B
:102FA600A0E7B3E0E0916F03F0E0AE0FBF1FEFEFD5
:102FB600EC930E94990813C0A0916D03A73021F0ED
:102FC600A43011F0A63009F40AC0A091AA03E1E0EA
:102FD600EA27E093AA030E94E30D0E949C0A33C2EB
:102FE600EE3049F4A0918403A13021F40E944B13E2
:102FF6000E949C0A28C2EF3089F4A0916D03A73085
:1030060021F0A43011F0A63009F403C0ECE0E093FF
:103016006D030E94F3090E94470815C2E031A1F52D
:10302600A0916D03A73021F0A43011F0A63009F469
:103036002AC0ABEAB3E00E941D1EEF5FFF4F6F4F41
:103046007F4F0E94271EA091AB03B091AC038091E5
:10305600AD039091AE03A330E0E0BE07E0E08E073B
:10306600E0E09E0760F0E0E0F0E060E070E0E09312
:10307600AB03F093AC036093AD037093AE030E9471
:10308600E30D0E949C0ADFC1EC30D9F4E0916D0398
:10309600E03031F4E1E0E0936D030E94C30610C016
:1030A600A0916D03A73021F0A43011F0A63009F4E9
:1030B60007C0E0E0E0936D030E94FE060E94F3095C
:1030C600C2C1EB3091F4A0916D03A73021F0A4307A
:1030D60011F0A63009F408C0E0E0E0938403E7E0CD
:1030E600E0936D030E949908AEC1E13071F5A0919D
:1030F6006D03A73021F0A43011F0A63061F4A0E7EB
:10310600B3E0E0916F03F0E0AE0FBF1FE0E0EC9399
:103116000E94CE0F19C0A0916D03A93031F4EAE0E8
:10312600E0936D030E9409080FC0A0916D03AA30B9
:1031360031F4EBE0E0936D030E94370505C0E9E04A
:10314600E0936D030E94CC077EC1E230D9F4A091D2
:103156006D03A73021F0A43011F0A63009F406C0A3
:10316600E3E0E0936D030E940A090BC0A0E7B3E019
:10317600E0916F03F0E0AE0FBF1FE1E0EC930E9419
:10318600CE0F61C1E330D9F4A0916D03A73021F0D1
:10319600A43011F0A63009F406C0E2E0E0936D0316
:1031A6000E94CA060BC0A0E7B3E0E0916F03F0E00F
:1031B600AE0FBF1FE2E0EC930E94CE0F44C1E43095
:1031C60011F00C942419A0916D03A73021F0A430BE
:1031D60011F0A63009F429C0E091A803E03021F4EB
:1031E600E1E0E093A8031EC0A091A803A13021F05E
:1031F600A091A803A230B1F4A0916D03A83051F4B8
:10320600E0E0E0936D03E093A8030E94390D0E946D
:10321600FE0608C0E8E0E0936D03E2E0E093A80351
:103226000E94390D0E9468080BC0A0E7B3E0E09148
:103236006F03F0E0AE0FBF1FE3E0EC930E94CE0FEA
:1032460002C1E53049F5A0916D03A73021F0A43005
:1032560011F0A63009F414C0E4E0E0936D030E9477
:103266009908E0E0EA93E2E0EA930E94A41CE09168
:103276006903F0916A03FA93EA930E94221D0BC038
:10328600A0E7B3E0E0916F03F0E0AE0FBF1FE4E00C
:10329600EC930E94CE0FD7C0E63011F00C949D1926
:1032A600A0916D03A73021F0A43011F0A63009F4E7
:1032B60035C0E0919A03F0919B0360919C03709155
:1032C6009D03A0919503B0919603809197039091E9
:1032D60098030E94901E58F0E0919E03F0919F0380
:1032E6006091A0037091A1030E948B1E80F4E0916F
:1032F6009A03F0919B0360919C0370919D03E09368
:103306009503F093960360939703709398030E9436
:10331600FE06E0E0EA930E94C3100BC0A0E7B3E00C
:10332600E0916F03F0E0AE0FBF1FE5E0EC930E9463
:10333600CE0F89C0E73049F5A0916D03A73021F083
:10334600A43011F0A63009F414C0E6E0E0936D0352
:103356000E949908E0E0EA93E2E0EA930E94A41C46
:10336600E0916903F0916A03FA93EA930E94221DA1
:103376000BC0A0E7B3E0E0916F03F0E0AE0FBF1F14
:10338600E6E0EC930E94CE0F5EC0E830C1F4A09157
:103396006D03A73021F0A43011F0A63009F403C064
:1033A6000E94B9110BC0A0E7B3E0E0916F03F0E013
:1033B600AE0FBF1FE7E0EC930E94CE0F44C0E9308A
:1033C600D9F4A0916D03A73021F0A43011F0A630F6
:1033D60009F406C0E1E0AE2EEA930E94C3100BC0CA
:1033E600A0E7B3E0E0916F03F0E0AE0FBF1FE8E0A7
:1033F600EC930E94CE0F27C0EA3029F5A0916D0309
:10340600A73021F0A43011F0A63009F411C0AA2487
:10341600A0918403A13021F4E0E0E093840305C089
:10342600E1E0E09384030E948E120E949C0A0BC086
:10343600A0E7B3E0E0916F03F0E0AE0FBF1FE9E055
:10344600EC930E94CE0FE0E0E0938C03A0916D0315
:10345600A03031F0A73021F0A43011F0A63009F4E5
:1034660019C0E0918603E03049F0E0E0E09386037E
:10347600E0916E03EF5FE0936E03E150A0916E035F
:10348600A53038F0E0E0E0936D030E94FE060E944E
:10349600F30903C0E0E0E0936E030895E0E0E093F3
:1034A6006100E3BFE0936400E4BDE5BDE6BDE7BDB2
:1034B600E8BDE3EAE0938000E9E0E0938100E0E024
:1034C600E0938200E0938500E0938400E093870018
:1034D600E0938600E3E0E0938900EFEFE093880055
:1034E600E3E0E0938B00EFEFE0938A00E0E0E09307
:1034F600B600E093B000E5E0E093B100E0E0E093D1
:10350600B200E093B300E093B400E2E0E093690018
:10351600E1E0EDBBECBBE0E0E0936800E1E0E093C6
:103526007000E0E8E0BFE0E0E0937B00E0937C0021
:10353600EEEBE4B9E2EFE7B9E0EEEAB9E1E4E5B9CA
:10354600E3E0E8B9E4E0EBB9A895E9E3E0936000CD
:10355600E9E2E09360002F9AE1E0EA930E94CF0E41
:10356600EAE0F0E0FA93EA930E942F1D1E9BF8CF43
:10357600E1E0E09387030E945304E091A603A5EFE0
:10358600B3E0F0E0EE0FFF1FAE0FBF1F0E94191E43
:10359600E0936503F0936603E091A603A5E0B4E02B
:1035A600F0E0EE0FFF1FAE0FBF1F0E94191EE09343
:1035B6006703F0936803E0916503F0916603E09377
:1035C6007F03F09380030E94120D419AE0E0E0939E
:1035D6006103E0936203E0EBF6E3E0936303F093A9
:1035E6006403E9E1BE2E0E945A0F0E94CD1B0E9481
:1035F60083140E94E30DEFEFF3E0E0936B03F09387
:103606006C030E94390D7894EEE1DE2E0E948D1433
:103616000E94E5130E946B130E949C0A0E94FE06FC
:103626000E94120DA8950E94E50E0E94440F0E946A
:10363600610D9FDA0E94910C0E94370E0E94581469
:10364600F1CFFFCF0A921A92FA926A937A938A93EB
:103656009A93AA93BA93EA93FA93EFB7EA93E0910F
:10366600A503F0E0E056FF4FE491A0EF0E94A81DED
:10367600A0911804AE1738F0E0E0E0931804E1E0FA
:10368600E093830305C0E0911804EF5FE09318040C
:10369600A0911504A93138F0E0E0E0931504E1E0CB
:1036A600E093820309C0E0918203E03029F4E091BF
:1036B6001504EF5FE0931504A0911604AA3F38F0B5
:1036C600E0E0E0931604E1E0E093860309C0E091B0
:1036D6008603E03029F4E0911604EF5FE0931604C8
:1036E600A0911904B0911A04A43FE1E0BE0748F086
:1036F600E0E0E0931904E0931A04E1E0E0938B0321
:103706000CC0E0918B03E03041F4A9E1B4E0ED9107
:10371600FD913196FE93EE933197E0918503E0306B
:1037260081F0A0911704A73038F0E0E0E093170489
:10373600E09385032C9805C0E0911704EF5FE093B2
:1037460017040E943A0CA0E01899A1E0A03029F0D5
:10375600A0E03099A1E0A03019F4E2E3EC1508F0FE
:1037660006C0E0E0E0938C030E948D1405C0DD24C2
:10377600EFEFCE1608F4C394E991EFBFF991E99102
:10378600B991A9919991899179916991F990199035
:1037960009901895E0E0EA93E2EEEA938ED0E4EF22
:1037A600F1E0FA93EA930E942F1DE0E0EA93E2E249
:1037B600EA9383D0E0E0EA93E9E8EA937ED0E0E09A
:1037C600EA93E4EAEA9379D0E0E0EA93EFE2EA9357
:1037D60074D0E0E0EA93E0E4EA936FD0E0E0EA93A5
:1037E600E0EBEA936AD0E0E0EA93E0E1EA9365D0A1
:1037F600E0E0EA93EA9361D0A7E1B0E00E945A1EA6
:10380600E03049F4E0E0EA93E8ECEA9356D0E0E0F1
:10381600EA93E1EA03C0E0E0EA93E9EAEA934DD0ED
:10382600E0E0EA93ECEAEA9348D0E0E0EA93E7E0E6
:10383600EA9343D0E0E0EA93EFEAEA933ED0E4E18C
:10384600F0E0FA93EA930E942F1D07D0E4E1F0E03E
:10385600FA93EA930E942F1D08950E94971EE0E0B6
:10386600EA93E0E4EA9329D0E0E0EA93E0EBEA9316
:1038760024D0E0E0EA93E0E1EA931FD0E0E0EA93A7
:10388600EA931BD0E0E0EA93EEEAEA9316D020E052
:1038960030E02036E3E03E0740F4E1E0EA93E0E082
:1038A600EA930BD02F5F3F4FF4CFE0E0EA93EFEAC5
:1038B600EA9303D00E949E1EB0C01A930A93F8940E
:1038C6005D9800E2E5B1AE2FE02FE095EA23E5B979
:1038D600EB81E03011F02B9A07C008E0E5B1AE2F7E
:1038E600E02FE095EA23E5B92D9A10E01830D0F4E0
:1038F60000E2E5B1AE2FE02FE095EA23E5B908E056
:10390600EA81E07819F0E5B1E02B05C0E5B1AE2F0C
:10391600E02FE095EA23E5B92D9AEA81EE0FEA83D6
:103926001F5FE4CF00E2E5B1AE2FE02FE095EA237A
:10393600E5B95D9A8BE18A95F1F77894198108814A
:103946006CC0E0E0EA93E981EF70E06BEA93B5DFE3
:10395600E0E0EA93EA81EF70EA93AFDFE0E0EA9312
:10396600EA81E295EF70E061EA93A7DF73C01A93EC
:1039760010E01530A0F4E1E0EA93EA81E052A5E018
:10398600EA9FF001E252FF4FDF01E12FF0E0EA0F7C
:10399600FB1FE491EE0FEA9390DF1F5FEACFE1E0B1
:1039A600EA93E0E0EA9389DF188154C01A93EA812A
:1039B600EA93EA81EA93C5DF10E01C3090F4E1E077
:1039C600EA93EC81A8E1EA9FF001E85DFC4FDF0194
:1039D600E12FF0E0EA0FFB1FE491EA936EDF1F5F31
:1039E600ECCFEA81EA93EA81EF5FEA93AADF1CE073
:1039F600183190F4E1E0EA93EC81A8E1EA9FF00146
:103A0600E85DFC4FDF01E12FF0E0EA0FFB1FE491D8
:103A1600EA9353DF1F5FECCF188124960895E8815F
:103A2600F981E491E03051F0E881F9813196E8833B
:103A3600F9833197E491EA939ADFF1CF0BC0A8811D
:103A4600B981EC91E03031F0ED91A883B983EA9326
:103A56008EDFF5CF22960895E991F991309639F0E7
:103A660080ED97E00197F1F7A8953197C9F708958A
:103A7600EA0FFB1F681F791F0895AE0FBF1F861F31
:103A8600971F0895EA1BFB0B680B790B0895AE1B75
:103A9600BF0B860B970B0895EA2BFB2B682B792B14
:103AA6000895F195E195F0400895EE230E2EFD015F
:103AB600BC0131F0EE0FFF1F661F771F0A94D1F786
:103AC6000895EE230E2EFD01BC0131F07695679523
:103AD600F795E7950A94D1F70895EE0FFF1FEE0FBD
:103AE600FF1F0895FA9FF02DEB9FF00DEA9FE02D42
:103AF600F10D08957A9F702D6B9F700DF89F700DD4
:103B0600E99F700D6A9F602D710DFB9F600D711D01
:103B1600E89F600D711D8827FA9FF02D610D781FB3
:103B2600EB9FF00D611D781FEA9FE02DF10D681FD8
:103B3600781F08956E2F6A9FF0016B9FF00D089510
:103B460067D0D0DF0EF4ADDF0895002498E0AA0F09
:103B5600001C0E1A10F40E0E01C0A1609A95B9F75A
:103B6600EA2FA02D08950024112490E1AA0FBB1F6F
:103B7600001C111C0E1A1F0A18F40E0E1F1E01C07F
:103B8600A1609A9599F7FD01D001089541D0EBDF28
:103B96000EF487DF08953F934F935F93002411241B
:103BA6004427552730E2AA0FBB1F881F991F001C08
:103BB600111C441F551F0E1A1F0A460B570B28F4DB
:103BC6000E0E1F1E461F571F01C0A1603A9559F7DA
:103BD600FD01BC01D001CA015F914F913F9108954B
:103BE600B4DFEA2F0895BFDFFD010895E894B7FF1B
:103BF60004C0A095B09511966894F7FD52DFB3DF27
:103C0600FD010EF44EDF0895C6DFFD01BC010895E7
:103C1600E894F7FF02C045DF6894B7FF06C0A09599
:103C2600B095119600F8039400FA0895ED91FC9171
:103C360011970895ED91FD916D917D910895ED9304
:103C4600FD936D937C9308957E936E93FE93EE930E
:103C56000895E881F9816A817B810895A881B981F7
:103C66008A819B810895E883F9836A837B8308951B
:103C7600A883B9838A839B8308957A936A93FA9378
:103C8600EA930895182E862F612D192E972F712DE0
:103C96001B2EBF2FF12D1A2EAE2FE12D0895129651
:103CA60002D0BF011297119602D0FE2F1197F999F3
:103CB600FECFFF93FFB7F894A1BDB2BDF89AE0B569
:103CC600FFBFFF91089507D012960F01FB0103D0A5
:103CD600F0011297089507D01196EF93EF2F03D0B6
:103CE600EF9111970895F99B02C0A895FCCF9FB755
:103CF600F894A1BDB2BDF89A80B5E81719F0E0BDF9
:103D0600FA9AF99A9FBF08953097604070400895D7
:103D1600EA17FB07680779070895AE17BF078607F6
:103D2600970708955A934A933A932A931A930A93B4
:103D360008955D814C813B812A811981088108950E
:00000001FF
